:020000001D28B9
:06000A001208082813088B
:100010008E00000000008E0B0928003400009101C2
:10002000051C0E280520083090000310051C031441
:10003000910C0720900B152800348316FF308500A3
:1000400000308600831291018601851C3228051D2F
:100050003728851D3C28051E412825280E2011081B
:1000600086002E28F9309200A63093002E287C308E
:100070009200533093002E283E3092002930930096
:0C0080002E281F309200133093002E2811
:02400E00F13F80
:00000001FF
